{
  "_format": "hh-sol-artifact-1",
  "contractName": "susTokenUpgraded",
  "sourceName": "contracts/susTokenUpgraded.sol",
  "chains": {
    "3": "0x28a83dD92F81a50091d1f3cA9c9Ce72E552Fd046",
    "97": "0xedC1aed2E863393B29e55E20460fF322B8383893"
  },
  "abi": [
    {
      "anonymous": false,
      "inputs": [
        {
          "indexed": true,
          "internalType": "address",
          "name": "owner",
          "type": "address"
        },
        {
          "indexed": true,
          "internalType": "address",
          "name": "spender",
          "type": "address"
        },
        {
          "indexed": false,
          "internalType": "uint256",
          "name": "value",
          "type": "uint256"
        }
      ],
      "name": "Approval",
      "type": "event"
    },
    {
      "anonymous": false,
      "inputs": [
        {
          "indexed": true,
          "internalType": "address",
          "name": "sender",
          "type": "address"
        },
        {
          "indexed": false,
          "internalType": "uint256",
          "name": "tokenAmount",
          "type": "uint256"
        },
        {
          "indexed": false,
          "internalType": "uint256",
          "name": "price",
          "type": "uint256"
        }
      ],
      "name": "BuyToken",
      "type": "event"
    },
    {
      "anonymous": false,
      "inputs": [
        {
          "indexed": true,
          "internalType": "address",
          "name": "from",
          "type": "address"
        },
        {
          "indexed": true,
          "internalType": "address",
          "name": "to",
          "type": "address"
        },
        {
          "indexed": false,
          "internalType": "uint256",
          "name": "value",
          "type": "uint256"
        }
      ],
      "name": "Transfer",
      "type": "event"
    },
    {
      "inputs": [
        {
          "internalType": "address",
          "name": "owner",
          "type": "address"
        },
        {
          "internalType": "address",
          "name": "spender",
          "type": "address"
        }
      ],
      "name": "allowance",
      "outputs": [
        {
          "internalType": "uint256",
          "name": "",
          "type": "uint256"
        }
      ],
      "stateMutability": "view",
      "type": "function"
    },
    {
      "inputs": [
        {
          "internalType": "address",
          "name": "spender",
          "type": "address"
        },
        {
          "internalType": "uint256",
          "name": "amount",
          "type": "uint256"
        }
      ],
      "name": "approve",
      "outputs": [
        {
          "internalType": "bool",
          "name": "",
          "type": "bool"
        }
      ],
      "stateMutability": "nonpayable",
      "type": "function"
    },
    {
      "inputs": [
        {
          "internalType": "address",
          "name": "account",
          "type": "address"
        }
      ],
      "name": "balanceOf",
      "outputs": [
        {
          "internalType": "uint256",
          "name": "",
          "type": "uint256"
        }
      ],
      "stateMutability": "view",
      "type": "function"
    },
    {
      "inputs": [],
      "name": "decimals",
      "outputs": [
        {
          "internalType": "uint8",
          "name": "",
          "type": "uint8"
        }
      ],
      "stateMutability": "view",
      "type": "function"
    },
    {
      "inputs": [
        {
          "internalType": "address",
          "name": "spender",
          "type": "address"
        },
        {
          "internalType": "uint256",
          "name": "subtractedValue",
          "type": "uint256"
        }
      ],
      "name": "decreaseAllowance",
      "outputs": [
        {
          "internalType": "bool",
          "name": "",
          "type": "bool"
        }
      ],
      "stateMutability": "nonpayable",
      "type": "function"
    },
    {
      "inputs": [
        {
          "internalType": "address",
          "name": "spender",
          "type": "address"
        },
        {
          "internalType": "uint256",
          "name": "addedValue",
          "type": "uint256"
        }
      ],
      "name": "increaseAllowance",
      "outputs": [
        {
          "internalType": "bool",
          "name": "",
          "type": "bool"
        }
      ],
      "stateMutability": "nonpayable",
      "type": "function"
    },
    {
      "inputs": [],
      "name": "initialize",
      "outputs": [],
      "stateMutability": "nonpayable",
      "type": "function"
    },
    {
      "inputs": [],
      "name": "name",
      "outputs": [
        {
          "internalType": "string",
          "name": "",
          "type": "string"
        }
      ],
      "stateMutability": "view",
      "type": "function"
    },
    {
      "inputs": [
        {
          "internalType": "address",
          "name": "who",
          "type": "address"
        }
      ],
      "name": "owhBalance",
      "outputs": [
        {
          "internalType": "uint256",
          "name": "",
          "type": "uint256"
        }
      ],
      "stateMutability": "view",
      "type": "function"
    },
    {
      "inputs": [],
      "name": "symbol",
      "outputs": [
        {
          "internalType": "string",
          "name": "",
          "type": "string"
        }
      ],
      "stateMutability": "view",
      "type": "function"
    },
    {
      "inputs": [],
      "name": "tokenPrice",
      "outputs": [
        {
          "internalType": "uint256",
          "name": "",
          "type": "uint256"
        }
      ],
      "stateMutability": "view",
      "type": "function"
    },
    {
      "inputs": [],
      "name": "totalSupply",
      "outputs": [
        {
          "internalType": "uint256",
          "name": "",
          "type": "uint256"
        }
      ],
      "stateMutability": "view",
      "type": "function"
    },
    {
      "inputs": [
        {
          "internalType": "address",
          "name": "to",
          "type": "address"
        },
        {
          "internalType": "uint256",
          "name": "amount",
          "type": "uint256"
        }
      ],
      "name": "transfer",
      "outputs": [
        {
          "internalType": "bool",
          "name": "",
          "type": "bool"
        }
      ],
      "stateMutability": "nonpayable",
      "type": "function"
    },
    {
      "inputs": [
        {
          "internalType": "address",
          "name": "from",
          "type": "address"
        },
        {
          "internalType": "address",
          "name": "to",
          "type": "address"
        },
        {
          "internalType": "uint256",
          "name": "amount",
          "type": "uint256"
        }
      ],
      "name": "transferFrom",
      "outputs": [
        {
          "internalType": "bool",
          "name": "",
          "type": "bool"
        }
      ],
      "stateMutability": "nonpayable",
      "type": "function"
    },
    {
      "stateMutability": "payable",
      "type": "receive"
    }
  ],
  "bytecode": "0x608060405234801561001057600080fd5b50611cc5806100206000396000f3fe6080604052600436106100e15760003560e01c80637ff9b5961161007f57806395d89b411161005957806395d89b411461035d578063a457c2d714610388578063a9059cbb146103c5578063dd62ed3e1461040257610164565b80637ff9b596146102de5780638129fc1c14610309578063945bd4c71461032057610164565b806323b872dd116100bb57806323b872dd146101fc578063313ce56714610239578063395093511461026457806370a08231146102a157610164565b806306fdde0314610169578063095ea7b31461019457806318160ddd146101d157610164565b36610164576000606554346100f6919061180e565b90506000811161010557600080fd5b61010f338261043f565b3373ffffffffffffffffffffffffffffffffffffffff167ff6f342132c7de5e5a1e99c8efae544c94731f3ff093f5c3c97c6973d9415cdfb82606554604051610159929190611758565b60405180910390a250005b600080fd5b34801561017557600080fd5b5061017e6105a0565b60405161018b91906115db565b60405180910390f35b3480156101a057600080fd5b506101bb60048036038101906101b6919061136d565b610632565b6040516101c891906115c0565b60405180910390f35b3480156101dd57600080fd5b506101e6610655565b6040516101f3919061173d565b60405180910390f35b34801561020857600080fd5b50610223600480360381019061021e919061131e565b61065f565b60405161023091906115c0565b60405180910390f35b34801561024557600080fd5b5061024e61068e565b60405161025b9190611781565b60405180910390f35b34801561027057600080fd5b5061028b6004803603810190610286919061136d565b610697565b60405161029891906115c0565b60405180910390f35b3480156102ad57600080fd5b506102c860048036038101906102c391906112b9565b610741565b6040516102d5919061173d565b60405180910390f35b3480156102ea57600080fd5b506102f361078a565b604051610300919061173d565b60405180910390f35b34801561031557600080fd5b5061031e610790565b005b34801561032c57600080fd5b50610347600480360381019061034291906112b9565b610901565b604051610354919061173d565b60405180910390f35b34801561036957600080fd5b506103726109b2565b60405161037f91906115db565b60405180910390f35b34801561039457600080fd5b506103af60048036038101906103aa919061136d565b610a44565b6040516103bc91906115c0565b60405180910390f35b3480156103d157600080fd5b506103ec60048036038101906103e7919061136d565b610b2e565b6040516103f991906115c0565b60405180910390f35b34801561040e57600080fd5b50610429600480360381019061042491906112e2565b610b51565b604051610436919061173d565b60405180910390f35b600073ffffffffffffffffffffffffffffffffffffffff168273ffffffffffffffffffffffffffffffffffffffff1614156104af576040517f08c379a00000000000000000000000000000000000000000000000000000000081526004016104a69061171d565b60405180910390fd5b6104bb60008383610bd8565b80603560008282546104cd91906117b8565b9250508190555080603360008473ffffffffffffffffffffffffffffffffffffffff1673ffffffffffffffffffffffffffffffffffffffff168152602001908152602001600020600082825461052391906117b8565b925050819055508173ffffffffffffffffffffffffffffffffffffffff16600073ffffffffffffffffffffffffffffffffffffffff167fddf252ad1be2c89b69c2b068fc378daa952ba7f163c4a11628f55a4df523b3ef83604051610588919061173d565b60405180910390a361059c60008383610bdd565b5050565b6060603680546105af906118c7565b80601f01602080910402602001604051908101604052809291908181526020018280546105db906118c7565b80156106285780601f106105fd57610100808354040283529160200191610628565b820191906000526020600020905b81548152906001019060200180831161060b57829003601f168201915b5050505050905090565b60008061063d610be2565b905061064a818585610bea565b600191505092915050565b6000603554905090565b60008061066a610be2565b9050610677858285610db5565b610682858585610e41565b60019150509392505050565b60006012905090565b6000806106a2610be2565b9050610736818585603460008673ffffffffffffffffffffffffffffffffffffffff1673ffffffffffffffffffffffffffffffffffffffff16815260200190815260200160002060008973ffffffffffffffffffffffffffffffffffffffff1673ffffffffffffffffffffffffffffffffffffffff1681526020019081526020016000205461073191906117b8565b610bea565b600191505092915050565b6000603360008373ffffffffffffffffffffffffffffffffffffffff1673ffffffffffffffffffffffffffffffffffffffff168152602001908152602001600020549050919050565b60655481565b600060019054906101000a900460ff166107b85760008054906101000a900460ff16156107c1565b6107c06110c5565b5b610800576040517f08c379a00000000000000000000000000000000000000000000000000000000081526004016107f79061167d565b60405180910390fd5b60008060019054906101000a900460ff161590508015610850576001600060016101000a81548160ff02191690831515021790555060016000806101000a81548160ff0219169083151502179055505b6108c46040518060400160405280600881526020017f737573546f6b656e0000000000000000000000000000000000000000000000008152506040518060400160405280600381526020017f53757300000000000000000000000000000000000000000000000000000000008152506110d6565b6108d0336103e861043f565b65065dd083700060658190555080156108fe5760008060016101000a81548160ff0219169083151502179055505b50565b60008073a4465b289842fb8fa856b28236825220202fde68905060008190508073ffffffffffffffffffffffffffffffffffffffff166370a08231856040518263ffffffff1660e01b815260040161095991906115a5565b60206040518083038186803b15801561097157600080fd5b505afa158015610985573d6000803e3d6000fd5b505050506040513d601f19601f820116820180604052508101906109a991906113a9565b92505050919050565b6060603780546109c1906118c7565b80601f01602080910402602001604051908101604052809291908181526020018280546109ed906118c7565b8015610a3a5780601f10610a0f57610100808354040283529160200191610a3a565b820191906000526020600020905b815481529060010190602001808311610a1d57829003601f168201915b5050505050905090565b600080610a4f610be2565b90506000603460008373ffffffffffffffffffffffffffffffffffffffff1673ffffffffffffffffffffffffffffffffffffffff16815260200190815260200160002060008673ffffffffffffffffffffffffffffffffffffffff1673ffffffffffffffffffffffffffffffffffffffff16815260200190815260200160002054905083811015610b15576040517f08c379a0000000000000000000000000000000000000000000000000000000008152600401610b0c906116fd565b60405180910390fd5b610b228286868403610bea565b60019250505092915050565b600080610b39610be2565b9050610b46818585610e41565b600191505092915050565b6000603460008473ffffffffffffffffffffffffffffffffffffffff1673ffffffffffffffffffffffffffffffffffffffff16815260200190815260200160002060008373ffffffffffffffffffffffffffffffffffffffff1673ffffffffffffffffffffffffffffffffffffffff16815260200190815260200160002054905092915050565b505050565b505050565b600033905090565b600073ffffffffffffffffffffffffffffffffffffffff168373ffffffffffffffffffffffffffffffffffffffff161415610c5a576040517f08c379a0000000000000000000000000000000000000000000000000000000008152600401610c51906116bd565b60405180910390fd5b600073ffffffffffffffffffffffffffffffffffffffff168273ffffffffffffffffffffffffffffffffffffffff161415610cca576040517f08c379a0000000000000000000000000000000000000000000000000000000008152600401610cc19061161d565b60405180910390fd5b80603460008573ffffffffffffffffffffffffffffffffffffffff1673ffffffffffffffffffffffffffffffffffffffff16815260200190815260200160002060008473ffffffffffffffffffffffffffffffffffffffff1673ffffffffffffffffffffffffffffffffffffffff168152602001908152602001600020819055508173ffffffffffffffffffffffffffffffffffffffff168373ffffffffffffffffffffffffffffffffffffffff167f8c5be1e5ebec7d5bd14f71427d1e84f3dd0314c0f7b2291e5b200ac8c7c3b92583604051610da8919061173d565b60405180910390a3505050565b6000610dc18484610b51565b90507fffffffffffffffffffffffffffffffffffffffffffffffffffffffffffffffff8114610e3b5781811015610e2d576040517f08c379a0000000000000000000000000000000000000000000000000000000008152600401610e249061163d565b60405180910390fd5b610e3a8484848403610bea565b5b50505050565b600073ffffffffffffffffffffffffffffffffffffffff168373ffffffffffffffffffffffffffffffffffffffff161415610eb1576040517f08c379a0000000000000000000000000000000000000000000000000000000008152600401610ea89061169d565b60405180910390fd5b600073ffffffffffffffffffffffffffffffffffffffff168273ffffffffffffffffffffffffffffffffffffffff161415610f21576040517f08c379a0000000000000000000000000000000000000000000000000000000008152600401610f18906115fd565b60405180910390fd5b610f2c838383610bd8565b6000603360008573ffffffffffffffffffffffffffffffffffffffff1673ffffffffffffffffffffffffffffffffffffffff16815260200190815260200160002054905081811015610fb3576040517f08c379a0000000000000000000000000000000000000000000000000000000008152600401610faa9061165d565b60405180910390fd5b818103603360008673ffffffffffffffffffffffffffffffffffffffff1673ffffffffffffffffffffffffffffffffffffffff1681526020019081526020016000208190555081603360008573ffffffffffffffffffffffffffffffffffffffff1673ffffffffffffffffffffffffffffffffffffffff168152602001908152602001600020600082825461104891906117b8565b925050819055508273ffffffffffffffffffffffffffffffffffffffff168473ffffffffffffffffffffffffffffffffffffffff167fddf252ad1be2c89b69c2b068fc378daa952ba7f163c4a11628f55a4df523b3ef846040516110ac919061173d565b60405180910390a36110bf848484610bdd565b50505050565b60006110d030611133565b15905090565b600060019054906101000a900460ff16611125576040517f08c379a000000000000000000000000000000000000000000000000000000000815260040161111c906116dd565b60405180910390fd5b61112f8282611156565b5050565b6000808273ffffffffffffffffffffffffffffffffffffffff163b119050919050565b600060019054906101000a900460ff166111a5576040517f08c379a000000000000000000000000000000000000000000000000000000000815260040161119c906116dd565b60405180910390fd5b81603690805190602001906111bb9291906111d7565b5080603790805190602001906111d29291906111d7565b505050565b8280546111e3906118c7565b90600052602060002090601f016020900481019282611205576000855561124c565b82601f1061121e57805160ff191683800117855561124c565b8280016001018555821561124c579182015b8281111561124b578251825591602001919060010190611230565b5b509050611259919061125d565b5090565b5b8082111561127657600081600090555060010161125e565b5090565b60008135905061128981611c61565b92915050565b60008135905061129e81611c78565b92915050565b6000815190506112b381611c78565b92915050565b6000602082840312156112cb57600080fd5b60006112d98482850161127a565b91505092915050565b600080604083850312156112f557600080fd5b60006113038582860161127a565b92505060206113148582860161127a565b9150509250929050565b60008060006060848603121561133357600080fd5b60006113418682870161127a565b93505060206113528682870161127a565b92505060406113638682870161128f565b9150509250925092565b6000806040838503121561138057600080fd5b600061138e8582860161127a565b925050602061139f8582860161128f565b9150509250929050565b6000602082840312156113bb57600080fd5b60006113c9848285016112a4565b91505092915050565b6113db8161183f565b82525050565b6113ea81611851565b82525050565b60006113fb8261179c565b61140581856117a7565b9350611415818560208601611894565b61141e81611986565b840191505092915050565b60006114366023836117a7565b915061144182611997565b604082019050919050565b60006114596022836117a7565b9150611464826119e6565b604082019050919050565b600061147c601d836117a7565b915061148782611a35565b602082019050919050565b600061149f6026836117a7565b91506114aa82611a5e565b604082019050919050565b60006114c2602e836117a7565b91506114cd82611aad565b604082019050919050565b60006114e56025836117a7565b91506114f082611afc565b604082019050919050565b60006115086024836117a7565b915061151382611b4b565b604082019050919050565b600061152b602b836117a7565b915061153682611b9a565b604082019050919050565b600061154e6025836117a7565b915061155982611be9565b604082019050919050565b6000611571601f836117a7565b915061157c82611c38565b602082019050919050565b6115908161187d565b82525050565b61159f81611887565b82525050565b60006020820190506115ba60008301846113d2565b92915050565b60006020820190506115d560008301846113e1565b92915050565b600060208201905081810360008301526115f581846113f0565b905092915050565b6000602082019050818103600083015261161681611429565b9050919050565b600060208201905081810360008301526116368161144c565b9050919050565b600060208201905081810360008301526116568161146f565b9050919050565b6000602082019050818103600083015261167681611492565b9050919050565b60006020820190508181036000830152611696816114b5565b9050919050565b600060208201905081810360008301526116b6816114d8565b9050919050565b600060208201905081810360008301526116d6816114fb565b9050919050565b600060208201905081810360008301526116f68161151e565b9050919050565b6000602082019050818103600083015261171681611541565b9050919050565b6000602082019050818103600083015261173681611564565b9050919050565b60006020820190506117526000830184611587565b92915050565b600060408201905061176d6000830185611587565b61177a6020830184611587565b9392505050565b60006020820190506117966000830184611596565b92915050565b600081519050919050565b600082825260208201905092915050565b60006117c38261187d565b91506117ce8361187d565b9250827fffffffffffffffffffffffffffffffffffffffffffffffffffffffffffffffff03821115611803576118026118f9565b5b828201905092915050565b60006118198261187d565b91506118248361187d565b92508261183457611833611928565b5b828204905092915050565b600061184a8261185d565b9050919050565b60008115159050919050565b600073ffffffffffffffffffffffffffffffffffffffff82169050919050565b6000819050919050565b600060ff82169050919050565b60005b838110156118b2578082015181840152602081019050611897565b838111156118c1576000848401525b50505050565b600060028204905060018216806118df57607f821691505b602082108114156118f3576118f2611957565b5b50919050565b7f4e487b7100000000000000000000000000000000000000000000000000000000600052601160045260246000fd5b7f4e487b7100000000000000000000000000000000000000000000000000000000600052601260045260246000fd5b7f4e487b7100000000000000000000000000000000000000000000000000000000600052602260045260246000fd5b6000601f19601f8301169050919050565b7f45524332303a207472616e7366657220746f20746865207a65726f206164647260008201527f6573730000000000000000000000000000000000000000000000000000000000602082015250565b7f45524332303a20617070726f766520746f20746865207a65726f20616464726560008201527f7373000000000000000000000000000000000000000000000000000000000000602082015250565b7f45524332303a20696e73756666696369656e7420616c6c6f77616e6365000000600082015250565b7f45524332303a207472616e7366657220616d6f756e742065786365656473206260008201527f616c616e63650000000000000000000000000000000000000000000000000000602082015250565b7f496e697469616c697a61626c653a20636f6e747261637420697320616c72656160008201527f647920696e697469616c697a6564000000000000000000000000000000000000602082015250565b7f45524332303a207472616e736665722066726f6d20746865207a65726f20616460008201527f6472657373000000000000000000000000000000000000000000000000000000602082015250565b7f45524332303a20617070726f76652066726f6d20746865207a65726f2061646460008201527f7265737300000000000000000000000000000000000000000000000000000000602082015250565b7f496e697469616c697a61626c653a20636f6e7472616374206973206e6f74206960008201527f6e697469616c697a696e67000000000000000000000000000000000000000000602082015250565b7f45524332303a2064656372656173656420616c6c6f77616e63652062656c6f7760008201527f207a65726f000000000000000000000000000000000000000000000000000000602082015250565b7f45524332303a206d696e7420746f20746865207a65726f206164647265737300600082015250565b611c6a8161183f565b8114611c7557600080fd5b50565b611c818161187d565b8114611c8c57600080fd5b5056fea2646970667358221220c690c576920249ac68194275c2372c269db9946743bd10ce6456c81f0bb76c6864736f6c63430008040033",
  "linkReferences": {},
  "deployedLinkReferences": {}
}